{
  "_format": "hh-sol-artifact-1",
  "contractName": "BettingFactory",
  "sourceName": "contracts/BettingFactory.sol",
  "abi": [
    {
      "anonymous": false,
      "inputs": [
        {
          "indexed": true,
          "internalType": "address",
          "name": "pool",
          "type": "address"
        },
        {
          "indexed": true,
          "internalType": "address",
          "name": "token",
          "type": "address"
        }
      ],
      "name": "CreatePool",
      "type": "event"
    },
    {
      "anonymous": false,
      "inputs": [
        {
          "indexed": true,
          "internalType": "address",
          "name": "previousOwner",
          "type": "address"
        },
        {
          "indexed": true,
          "internalType": "address",
          "name": "newOwner",
          "type": "address"
        }
      ],
      "name": "OwnershipTransferred",
      "type": "event"
    },
    {
      "inputs": [
        {
          "internalType": "address",
          "name": "token",
          "type": "address"
        }
      ],
      "name": "createPool",
      "outputs": [
        {
          "internalType": "address",
          "name": "",
          "type": "address"
        }
      ],
      "stateMutability": "nonpayable",
      "type": "function"
    },
    {
      "inputs": [
        {
          "internalType": "address",
          "name": "pool",
          "type": "address"
        }
      ],
      "name": "getBettingPool",
      "outputs": [
        {
          "components": [
            {
              "internalType": "bool",
              "name": "exists",
              "type": "bool"
            },
            {
              "internalType": "address",
              "name": "token",
              "type": "address"
            }
          ],
          "internalType": "struct BettingPoolData",
          "name": "",
          "type": "tuple"
        }
      ],
      "stateMutability": "view",
      "type": "function"
    },
    {
      "inputs": [
        {
          "internalType": "address",
          "name": "pool",
          "type": "address"
        }
      ],
      "name": "isBettingPool",
      "outputs": [
        {
          "internalType": "bool",
          "name": "",
          "type": "bool"
        }
      ],
      "stateMutability": "view",
      "type": "function"
    },
    {
      "inputs": [],
      "name": "oracle",
      "outputs": [
        {
          "internalType": "address",
          "name": "",
          "type": "address"
        }
      ],
      "stateMutability": "view",
      "type": "function"
    },
    {
      "inputs": [],
      "name": "owner",
      "outputs": [
        {
          "internalType": "address",
          "name": "",
          "type": "address"
        }
      ],
      "stateMutability": "view",
      "type": "function"
    },
    {
      "inputs": [],
      "name": "renounceOwnership",
      "outputs": [],
      "stateMutability": "nonpayable",
      "type": "function"
    },
    {
      "inputs": [
        {
          "internalType": "address",
          "name": "oracle_",
          "type": "address"
        }
      ],
      "name": "setOracle",
      "outputs": [],
      "stateMutability": "nonpayable",
      "type": "function"
    },
    {
      "inputs": [
        {
          "internalType": "address",
          "name": "newOwner",
          "type": "address"
        }
      ],
      "name": "transferOwnership",
      "outputs": [],
      "stateMutability": "nonpayable",
      "type": "function"
    }
  ],
  "bytecode": "0x608060405234801561001057600080fd5b5061001a3361001f565b61006f565b600080546001600160a01b038381166001600160a01b0319831681178455604051919092169283917f8be0079c531659141344cd1fd0a4f28419497f9722a3daafe3b4186f6b6457e09190a35050565b6154828061007e6000396000f3fe60806040523480156200001157600080fd5b5060043610620000935760003560e01c80638da5cb5b11620000625780638da5cb5b146200012a5780639049f9d2146200013c578063a5e886071462000153578063f2fde38b146200019357600080fd5b80635e2d633e1462000098578063715018a614620000da5780637adbf97314620000e65780637dc0d1d014620000fd575b600080fd5b620000af620000a93660046200061d565b620001aa565b604080518251151581526020928301516001600160a01b031692810192909252015b60405180910390f35b620000e46200026d565b005b620000e4620000f73660046200061d565b62000285565b60015462000111906001600160a01b031681565b6040516001600160a01b039091168152602001620000d1565b6000546001600160a01b031662000111565b620001116200014d3660046200061d565b62000353565b62000182620001643660046200061d565b6001600160a01b031660009081526002602052604090205460ff1690565b6040519015158152602001620000d1565b620000e4620001a43660046200061d565b620004e4565b60408051808201909152600080825260208201526001600160a01b03821660009081526002602052604090205460ff166200022c5760405162461bcd60e51b815260206004820152601b60248201527f42657474696e6720706f6f6c20646f6573206e6f74206578697374000000000060448201526064015b60405180910390fd5b506001600160a01b0390811660009081526002602090815260409182902082518084019093525460ff81161515835261010090049092169181019190915290565b6200027762000563565b620002836000620005bf565b565b6200028f62000563565b6001546001600160a01b031615620002df5760405162461bcd60e51b815260206004820152601260248201527113dc9858db1948185b1c9958591e481cd95d60721b604482015260640162000223565b6001600160a01b0381163b620003315760405162461bcd60e51b815260206004820152601660248201527513dc9858db19481a5cc81b9bdd0818dbdb9d1c9858dd60521b604482015260640162000223565b600180546001600160a01b0319166001600160a01b0392909216919091179055565b60006001600160a01b0382163b620003a35760405162461bcd60e51b8152602060048201526012602482015271151bdad95b881b9bdd0818dbdb9d1c9858dd60721b604482015260640162000223565b6001546001600160a01b0316620003ee5760405162461bcd60e51b815260206004820152600e60248201526d13dc9858db19481b9bdd081cd95d60921b604482015260640162000223565b60015460405160009184916001600160a01b0390911690339062000412906200060f565b6001600160a01b03938416815291831660208301529091166040820152606001604051809103906000f0801580156200044f573d6000803e3d6000fd5b50604080518082018252600181526001600160a01b038681166020808401828152868416600081815260029093528683209551865492516001600160a81b0319909316901515610100600160a81b03191617610100929095169190910293909317909355925193945091927fdbd2a1ea6808362e6adbec4db4969cbc11e3b0b28fb6c74cb342defaaf1daada9190a392915050565b620004ee62000563565b6001600160a01b038116620005555760405162461bcd60e51b815260206004820152602660248201527f4f776e61626c653a206e6577206f776e657220697320746865207a65726f206160448201526564647265737360d01b606482015260840162000223565b6200056081620005bf565b50565b6000546001600160a01b03163314620002835760405162461bcd60e51b815260206004820181905260248201527f4f776e61626c653a2063616c6c6572206973206e6f7420746865206f776e6572604482015260640162000223565b600080546001600160a01b038381166001600160a01b0319831681178455604051919092169283917f8be0079c531659141344cd1fd0a4f28419497f9722a3daafe3b4186f6b6457e09190a35050565b614dfd806200065083390190565b6000602082840312156200063057600080fd5b81356001600160a01b03811681146200064857600080fd5b939250505056fe6101206040523480156200001257600080fd5b5060405162004dfd38038062004dfd83398101604081905262000035916200052f565b6040518060400160405280600c81526020016b149958dbdc9919590810995d60a21b8152506040518060400160405280600381526020016210915560ea1b81525082838662000098816001600160a01b03166200041f60201b620013121760201c565b620000ea5760405162461bcd60e51b815260206004820152601760248201527f506f6f6c20746f6b656e206e6f7420636f6e747261637400000000000000000060448201526064015b60405180910390fd5b6001600160a01b03166080523060a0526200011560008051602062004ddd833981519152826200042e565b6200013060008051602062004ddd83398151915280620004b7565b6200016b7f2561bf26f818282a3be40719542054d2173eb0d38539e8a8d3cff22f29fd238460008051602062004ddd833981519152620004b7565b620001a67fe2f4eaae4a9751e85a3e4a7b9587827a877f29914755229b07a7b2da98285f7060008051602062004ddd833981519152620004b7565b506001600160a01b0381166200020a5760405162461bcd60e51b815260206004820152602260248201527f41646d696e2066656520726563697069656e742063616e6e6f74206265207a65604482015261726f60f01b6064820152608401620000e1565b600280546001600160a01b0319166001600160a01b039283161790553360c0526080516040805163313ce56760e01b81529051919092169163313ce5679160048083019260209291908290030181865afa1580156200026d573d6000803e3d6000fd5b505050506040513d601f19601f8201168201806040525081019062000293919062000579565b604051620002a19062000504565b60608082526008908201526710915508141bdbdb60c21b608082015260a060208201819052600490820152631cd0915560e21b60c082015260ff909116604082015260e001604051809103906000f08015801562000303573d6000803e3d6000fd5b506001600160a01b031660e05260056200031e83826200064a565b5060066200032d82826200064a565b5050506200034f836001600160a01b03166200041f60201b620013121760201c565b6200039d5760405162461bcd60e51b815260206004820152601f60248201527f42657474696e6720746f6b656e206973206e6f74206120636f6e7472616374006044820152606401620000e1565b620003bc826001600160a01b03166200041f60201b620013121760201c565b6200040a5760405162461bcd60e51b815260206004820152601660248201527f4f7261636c65206973206e6f7420636f6e7472616374000000000000000000006044820152606401620000e1565b506001600160a01b0316610100525062000716565b6001600160a01b03163b151590565b60008281526001602090815260408083206001600160a01b038516845290915290205460ff16620004b35760008281526001602081815260408084206001600160a01b0386168086529252808420805460ff19169093179092559051339285917f2f8788117e7eff1d82e926ec794901d17c78024a50270940304540a733656f0d9190a45b5050565b6000828152600160208190526040808320909101805490849055905190918391839186917fbd79b86ffe0ab8e8776151514217cd7cacd52c909f66475c3af44e129f0b00ff9190a4505050565b610f448062003e9983390190565b80516001600160a01b03811681146200052a57600080fd5b919050565b6000806000606084860312156200054557600080fd5b620005508462000512565b9250620005606020850162000512565b9150620005706040850162000512565b90509250925092565b6000602082840312156200058c57600080fd5b815160ff811681146200059e57600080fd5b9392505050565b634e487b7160e01b600052604160045260246000fd5b600181811c90821680620005d057607f821691505b602082108103620005f157634e487b7160e01b600052602260045260246000fd5b50919050565b601f8211156200064557600081815260208120601f850160051c81016020861015620006205750805b601f850160051c820191505b8181101562000641578281556001016200062c565b5050505b505050565b81516001600160401b03811115620006665762000666620005a5565b6200067e81620006778454620005bb565b84620005f7565b602080601f831160018114620006b657600084156200069d5750858301515b600019600386901b1c1916600185901b17855562000641565b600085815260208120601f198616915b82811015620006e757888601518255948401946001909101908401620006c6565b5085821015620007065787850151600019600388901b60f8161c191681555b5050505050600190811b01905550565b60805160a05160c05160e051610100516136ff6200079a60003960008181610b6801528181610c8501528181610e770152611ca301526000818161040b015281816109bc015281816110c101528181611651015261200d015260006117500152600061217f0152600081816105b20152818161184c01526121aa01526136ff6000f3fe608060405234801561001057600080fd5b50600436106102485760003560e01c806370a082311161013b578063c7547416116100b8578063e74b981b1161007c578063e74b981b146105ef578063e7f44b7414610602578063e985e9c514610615578063eed9491c14610651578063f6c9eda01461065957600080fd5b8063c75474161461058c578063c87b56dd1461059a578063cbdf382c146105ad578063d0e30db0146105d4578063d547741f146105dc57600080fd5b8063a217fddf116100ff578063a217fddf14610500578063a22cb46514610508578063a2b1a2cc1461051b578063b88d4fde1461052e578063c3c95c7b1461054157600080fd5b806370a082311461048457806375b238fc1461049757806391d14854146104be57806395d89b41146104d1578063a1ebf35d146104d957600080fd5b806336568abe116101c95780634469ed141161018d5780634469ed141461042d57806344db54a81461043c5780634df86c431461044f5780635e3f2727146104625780636352211e1461047157600080fd5b806336568abe146103a25780633f1be091146103b557806340324667146103e057806342842e0e146103f357806343cd8f7e1461040657600080fd5b806323b872dd1161021057806323b872dd14610310578063248a9ca3146103235780632e1a7d4d146103555780632f2ff15d14610368578063353efdcf1461037b57600080fd5b806301ffc9a71461024d578063061e494f1461027557806306fdde03146102bb578063081812fc146102d0578063095ea7b3146102fb575b600080fd5b61026061025b366004612fba565b610667565b60405190151581526020015b60405180910390f35b610288610283366004612fd7565b610692565b60405161026c91908151815260208083015190820152604080830151908201526060918201519181019190915260800190565b6102c3610759565b60405161026c9190613040565b6102e36102de366004612fd7565b6107eb565b6040516001600160a01b03909116815260200161026c565b61030e61030936600461306f565b610812565b005b61030e61031e366004613099565b610927565b610347610331366004612fd7565b6000908152600160208190526040909120015490565b60405190815260200161026c565b610347610363366004612fd7565b610958565b61030e6103763660046130d5565b610a89565b6103477f2561bf26f818282a3be40719542054d2173eb0d38539e8a8d3cff22f29fd238481565b61030e6103b03660046130d5565b610aaf565b6103476103c3366004613101565b6000918252600d6020908152604080842092845291905290205490565b6002546102e3906001600160a01b031681565b61030e610401366004613099565b610b2d565b6102e37f000000000000000000000000000000000000000000000000000000000000000081565b6103476702c68af0bb14000081565b61034761044a366004613123565b610b48565b61034761045d366004612fd7565b610c53565b610347670b1a2bc2ec50000081565b6102e361047f366004612fd7565b610d24565b6103476104923660046131c6565b610d84565b6103477fa49807205ce4d355092ef5a8a18f56e8913cf4a201fbe287825b095693c2177581565b6102606104cc3660046130d5565b610e0a565b6102c3610e35565b6103477fe2f4eaae4a9751e85a3e4a7b9587827a877f29914755229b07a7b2da98285f7081565b610347600081565b61030e6105163660046131ef565b610e44565b610347610529366004612fd7565b610e4f565b61030e61053c36600461323c565b610f0e565b61057161054f366004612fd7565b6000908152600d60205260409020600181015460038201546002909201549092565b6040805193845260208401929092529082015260600161026c565b61034766038d7ea4c6800081565b6102c36105a8366004612fd7565b610f46565b6102e37f000000000000000000000000000000000000000000000000000000000000000081565b610347610fb9565b61030e6105ea3660046130d5565b61115d565b61030e6105fd3660046131c6565b611183565b61030e610610366004613318565b611259565b610260610623366004613335565b6001600160a01b039182166000908152600a6020908152604080832093909416825291909152205460ff1690565b600354610347565b61034766b1a2bc2ec5000081565b60006001600160e01b03198216637965db0b60e01b148061068c575061068c82611321565b92915050565b6040805160808101825260008082526020820181905291810182905260608101919091526000828152600760205260409020546001600160a01b03166107145760405162461bcd60e51b815260206004820152601260248201527110995d08191bd95cc81b9bdd08195e1a5cdd60721b60448201526064015b60405180910390fd5b506000908152600b6020908152604091829020825160808101845281548152600182015492810192909252600281015492820192909252600390910154606082015290565b6060600580546107689061335f565b80601f01602080910402602001604051908101604052809291908181526020018280546107949061335f565b80156107e15780601f106107b6576101008083540402835291602001916107e1565b820191906000526020600020905b8154815290600101906020018083116107c457829003601f168201915b5050505050905090565b60006107f682611361565b506000908152600960205260409020546001600160a01b031690565b600061081d82610d24565b9050806001600160a01b0316836001600160a01b03160361088a5760405162461bcd60e51b815260206004820152602160248201527f4552433732313a20617070726f76616c20746f2063757272656e74206f776e656044820152603960f91b606482015260840161070b565b336001600160a01b03821614806108a657506108a68133610623565b6109185760405162461bcd60e51b815260206004820152603e60248201527f4552433732313a20617070726f76652063616c6c6572206973206e6f7420746f60448201527f6b656e206f776e6572206e6f7220617070726f76656420666f7220616c6c0000606482015260840161070b565b61092283836113c3565b505050565b6109313382611431565b61094d5760405162461bcd60e51b815260040161070b90613399565b6109228383836114b0565b60008082116109a05760405162461bcd60e51b815260206004820152601460248201527343616e6e6f74207769746864726177207a65726f60601b604482015260640161070b565b604051632770a7eb60e21b8152336004820152602481018390527f00000000000000000000000000000000000000000000000000000000000000006001600160a01b031690639dc29fac90604401600060405180830381600087803b158015610a0857600080fd5b505af1158015610a1c573d6000803e3d6000fd5b505050506000610a2b8361164c565b90506000610a3a8260016116ff565b9050610a46338261183f565b604080518581526020810183905233917ff279e6a1f5e320cca91135676d9cb6e44ca8a08c0b88342bcdb1144f6511b56891015b60405180910390a29392505050565b60008281526001602081905260409091200154610aa581611882565b610922838361188c565b6001600160a01b0381163314610b1f5760405162461bcd60e51b815260206004820152602f60248201527f416363657373436f6e74726f6c3a2063616e206f6e6c792072656e6f756e636560448201526e103937b632b9903337b91039b2b63360891b606482015260840161070b565b610b2982826118f7565b5050565b61092283838360405180602001604052806000815250610f0e565b604051631d391a8360e01b815260048101889052602481018790526000907f00000000000000000000000000000000000000000000000000000000000000006001600160a01b031690631d391a839060440160006040518083038186803b158015610bb257600080fd5b505afa158015610bc6573d6000803e3d6000fd5b50505050610bd885898987878761195e565b6000610be2611ad9565b905060008111610c295760405162461bcd60e51b81526020600482015260126024820152714265742063616e6e6f74206265207a65726f60701b604482015260640161070b565b6000610c368260026116ff565b9050610c458a8a838a8c611aff565b9a9950505050505050505050565b600080610c5f83610692565b80516060820151604051632985192f60e11b8152600481019290925260248201529091507f00000000000000000000000000000000000000000000000000000000000000006001600160a01b03169063530a325e9060440160006040518083038186803b158015610ccf57600080fd5b505afa158015610ce3573d6000803e3d6000fd5b50505050610cf48160000151611c5f565b6040810151610d0b610d0585610d24565b8261183f565b610d1484611d8a565b610d1d81611db8565b9392505050565b6000818152600760205260408120546001600160a01b03168061068c5760405162461bcd60e51b8152602060048201526018602482015277115490cdcc8c4e881a5b9d985b1a59081d1bdad95b88125160421b604482015260640161070b565b60006001600160a01b038216610dee5760405162461bcd60e51b815260206004820152602960248201527f4552433732313a2061646472657373207a65726f206973206e6f7420612076616044820152683634b21037bbb732b960b91b606482015260840161070b565b506001600160a01b031660009081526008602052604090205490565b60009182526001602090815260408084206001600160a01b0393909316845291905290205460ff1690565b6060600680546107689061335f565b610b29338383611e06565b600080610e5b83610692565b8051604051636fb6e3ed60e11b81529192506001600160a01b037f0000000000000000000000000000000000000000000000000000000000000000169163df6dc7da91610eae9160040190815260200190565b60006040518083038186803b158015610ec657600080fd5b505afa158015610eda573d6000803e3d6000fd5b50505050610eeb8160000151611c5f565b6020810151610efc610d0585610d24565b610f0581611db8565b610d1d84611d8a565b610f183383611431565b610f345760405162461bcd60e51b815260040161070b90613399565b610f4084848484611ed4565b50505050565b6060610f5182611361565b6000610f6860408051602081019091526000815290565b90506000815111610f885760405180602001604052806000815250610d1d565b80610f9284611f07565b604051602001610fa39291906133e7565b6040516020818303038152906040529392505050565b60045460009060ff161580610ff35750610ff37f2561bf26f818282a3be40719542054d2173eb0d38539e8a8d3cff22f29fd238433610e0a565b6110365760405162461bcd60e51b8152602060048201526014602482015273155b985d5d1a1bdc9a5e99590819195c1bdcda5d60621b604482015260640161070b565b6000611040611ad9565b9050600081116110885760405162461bcd60e51b815260206004820152601360248201527243616e6e6f74206465706f736974207a65726f60681b604482015260640161070b565b60006110958260006116ff565b905060006110a282612008565b6040516340c10f1960e01b8152336004820152602481018290529091507f00000000000000000000000000000000000000000000000000000000000000006001600160a01b0316906340c10f1990604401600060405180830381600087803b15801561110d57600080fd5b505af1158015611121573d6000803e3d6000fd5b505060408051868152602081018590523393507f90890809c654f11d6e72a28fa60149770a0d11ec6c92319d6ceb2bb0a4ea1a15925001610a7a565b6000828152600160208190526040909120015461117981611882565b61092283836118f7565b7fa49807205ce4d355092ef5a8a18f56e8913cf4a201fbe287825b095693c217756111ad81611882565b6001600160a01b0382166112035760405162461bcd60e51b815260206004820152601c60248201527f46656520726563697069656e742063616e6e6f74206265207a65726f00000000604482015260640161070b565b600280546001600160a01b0319166001600160a01b0384169081179091556040519081527ff521712bf1ce82d7f4e4944e10246f20f830133e026b901b847c43231fdde8aa906020015b60405180910390a15050565b7fa49807205ce4d355092ef5a8a18f56e8913cf4a201fbe287825b095693c2177561128381611882565b60045482151560ff9091161515036112d15760405162461bcd60e51b815260206004820152601160248201527014dd185d1948185b1c9958591e481cd95d607a1b604482015260640161070b565b6004805460ff19168315159081179091556040519081527f43d560ef60a4b458cce6ac38e776c262fd07a954cbff8ab258b4c7aabe261a429060200161124d565b6001600160a01b03163b151590565b60006001600160e01b031982166380ac58cd60e01b148061135257506001600160e01b03198216635b5e139f60e01b145b8061068c575061068c826120b0565b6000818152600760205260409020546001600160a01b03166113c05760405162461bcd60e51b8152602060048201526018602482015277115490cdcc8c4e881a5b9d985b1a59081d1bdad95b88125160421b604482015260640161070b565b50565b600081815260096020526040902080546001600160a01b0319166001600160a01b03841690811790915581906113f882610d24565b6001600160a01b03167f8c5be1e5ebec7d5bd14f71427d1e84f3dd0314c0f7b2291e5b200ac8c7c3b92560405160405180910390a45050565b60008061143d83610d24565b9050806001600160a01b0316846001600160a01b0316148061148457506001600160a01b038082166000908152600a602090815260408083209388168352929052205460ff165b806114a85750836001600160a01b031661149d846107eb565b6001600160a01b0316145b949350505050565b826001600160a01b03166114c382610d24565b6001600160a01b0316146115275760405162461bcd60e51b815260206004820152602560248201527f4552433732313a207472616e736665722066726f6d20696e636f72726563742060448201526437bbb732b960d91b606482015260840161070b565b6001600160a01b0382166115895760405162461bcd60e51b8152602060048201526024808201527f4552433732313a207472616e7366657220746f20746865207a65726f206164646044820152637265737360e01b606482015260840161070b565b6115946000826113c3565b6001600160a01b03831660009081526008602052604081208054600192906115bd90849061342c565b90915550506001600160a01b03821660009081526008602052604081208054600192906115eb90849061343f565b909155505060008181526007602052604080822080546001600160a01b0319166001600160a01b0386811691821790925591518493918716917fddf252ad1be2c89b69c2b068fc378daa952ba7f163c4a11628f55a4df523b3ef91a4505050565b6000807f00000000000000000000000000000000000000000000000000000000000000006001600160a01b03166318160ddd6040518163ffffffff1660e01b8152600401602060405180830381865afa1580156116ad573d6000803e3d6000fd5b505050506040513d601f19601f820116820180604052508101906116d19190613452565b9050806000036116e2575090919050565b806116eb6120e5565b6116f5908561346b565b610d1d91906134a0565b600080826002811115611714576117146134b4565b14806117315750600182600281111561172f5761172f6134b4565b145b156117875760006117498466038d7ea4c68000612101565b90506117757f00000000000000000000000000000000000000000000000000000000000000008261183f565b61177f818561342c565b9150506117eb565b600282600281111561179b5761179b6134b4565b036117eb5760006117b38466b1a2bc2ec50000612101565b6002549091506117dd906001600160a01b03166117d8836702c68af0bb140000612101565b61183f565b6117e7818561342c565b9150505b8160028111156117fd576117fd6134b4565b7fefa7872005270c94ce0544b41e60add8f303ecd344ef9a3231f2faf6e81dfb91611828838661342c565b60405190815260200160405180910390a292915050565b6118736001600160a01b037f0000000000000000000000000000000000000000000000000000000000000000168383612116565b61187b612168565b6000555050565b6113c08133612217565b6118968282610e0a565b610b295760008281526001602081815260408084206001600160a01b0386168086529252808420805460ff19169093179092559051339285917f2f8788117e7eff1d82e926ec794901d17c78024a50270940304540a733656f0d9190a45050565b6119018282610e0a565b15610b295760008281526001602090815260408083206001600160a01b0385168085529252808320805460ff1916905551339285917ff6391f5c32d9c69d2a47ea670b442974b53935d1edc7fd64eb21e047a839171b9190a45050565b670de0b6b3a764000086116119ae5760405162461bcd60e51b8152602060048201526016602482015275086c2dcdcdee840d0c2ecca40dec8c8e640787a4062f60531b604482015260640161070b565b6040805160208082018990528183018890526060820187905260808083018790528351808403909101815260a0830184528051818301207f19457468657265756d205369676e6564204d6573736167653a0a33320000000060c085015260dc808501919091528451808503909101815260fc9093019093528151910120611a8f7fe2f4eaae4a9751e85a3e4a7b9587827a877f29914755229b07a7b2da98285f706104cc8387878080601f01602080910402602001604051908101604052809392919081815260200183838082843760009201919091525061227b92505050565b611acf5760405162461bcd60e51b8152602060048201526011602482015270496e76616c6964207369676e617475726560781b604482015260640161070b565b5050505050505050565b600080611ae4612168565b905060005481611af4919061342c565b600091909155919050565b6000858152600d602090815260408083206002810154888552928190529083205490918391611b3a918891889190611b356120e5565b61229f565b9050600086611b51670de0b6b3a76400008461346b565b611b5b91906134a0565b905084811015611ba05760405162461bcd60e51b815260206004820152601060248201526f135a5b881bd9191cc81b9bdd081b595d60821b604482015260640161070b565b60008881526020849052604081208054849290611bbe90849061343f565b9250508190555086836001016000828254611bd9919061343f565b909155505060008881526020849052604081205460018501549091611bfe8383612362565b90508560030154811115611c2c57611c24866003015482611c1f919061342c565b612379565b600386018190555b8560020154831115611c4057600286018390555b611c4d338d8c888f6123c0565b96505050505050505b95945050505050565b6000818152600d6020526040812060038101549091819003611c8057505050565b60405163c3c95c7b60e01b81526004810184905260009081906001600160a01b037f0000000000000000000000000000000000000000000000000000000000000000169063c3c95c7b90602401608060405180830381865afa158015611cea573d6000803e3d6000fd5b505050506040513d601f19601f82011682018060405250810190611d0e91906134ca565b509250509150808015611d245750836001015483115b15611d4657611d41846001015484611d3c919061342c565b611db8565b611d79565b600082815260208590526040902054831115611d7957600082815260208590526040902054611d7990611d3c908561342c565b600084600301819055505050505050565b611d938161243b565b6000908152600b60205260408120818155600181018290556002810182905560030155565b8060036000828254611dca919061342c565b90915550506040518181527f13caa4183a9bdcf13c2a0d89747c3aa6993c1abbda579c0177ff681e00a5f956906020015b60405180910390a150565b816001600160a01b0316836001600160a01b031603611e675760405162461bcd60e51b815260206004820152601960248201527f4552433732313a20617070726f766520746f2063616c6c657200000000000000604482015260640161070b565b6001600160a01b038381166000818152600a6020908152604080832094871680845294825291829020805460ff191686151590811790915591519182527f17307eab39ab6107e8899845ad3d59bd9653f200f220920489ca2b5937696c31910160405180910390a3505050565b611edf8484846114b0565b611eeb848484846124d6565b610f405760405162461bcd60e51b815260040161070b90613515565b606081600003611f2e5750506040805180820190915260018152600360fc1b602082015290565b8160005b8115611f585780611f4281613567565b9150611f519050600a836134a0565b9150611f32565b60008167ffffffffffffffff811115611f7357611f73613226565b6040519080825280601f01601f191660200182016040528015611f9d576020820181803683370190505b5090505b84156114a857611fb260018361342c565b9150611fbf600a86613580565b611fca90603061343f565b60f81b818381518110611fdf57611fdf613594565b60200101906001600160f81b031916908160001a905350612001600a866134a0565b9450611fa1565b6000807f00000000000000000000000000000000000000000000000000000000000000006001600160a01b03166318160ddd6040518163ffffffff1660e01b8152600401602060405180830381865afa158015612069573d6000803e3d6000fd5b505050506040513d601f19601f8201168201806040525081019061208d9190613452565b90508060000361209e575090919050565b6120a66120e5565b6116f5828561346b565b60006001600160e01b03198216637965db0b60e01b148061068c57506301ffc9a760e01b6001600160e01b031983161461068c565b60006003546120f2612168565b6120fc919061342c565b905090565b6000670de0b6b3a76400006116f5838561346b565b604080516001600160a01b038416602482015260448082018490528251808303909101815260649091019091526020810180516001600160e01b031663a9059cbb60e01b1790526109229084906125d7565b6040516370a0823160e01b81526001600160a01b037f0000000000000000000000000000000000000000000000000000000000000000811660048301526000917f0000000000000000000000000000000000000000000000000000000000000000909116906370a0823190602401602060405180830381865afa1580156121f3573d6000803e3d6000fd5b505050506040513d601f19601f820116820180604052508101906120fc9190613452565b6122218282610e0a565b610b2957612239816001600160a01b031660146126a9565b6122448360206126a9565b6040516020016122559291906135aa565b60408051601f198184030181529082905262461bcd60e51b825261070b91600401613040565b600080600061228a8585612845565b915091506122978161288a565b509392505050565b600080670de0b6b3a76400006122b5878961346b565b6122bf91906134a0565b90506122cb818561343f565b85106122d8579050611c56565b60006122e4858761342c565b905060006122f2828461342c565b90506000612334670de0b6b3a7640000878161230f86600261346b565b612319919061346b565b61232391906134a0565b61232d919061343f565b6001612a40565b612342633b9aca008861346b565b61234c91906134a0565b612356908761342c565b9050610c45818461343f565b6000818310156123725781610d1d565b5090919050565b806003600082825461238b919061343f565b90915550506040518181527f759347135dd5214aa299fc01c811490601d15502db1d9e140e4643244a291bf390602001611dfb565b600c8054600091826123d183613567565b909155505060408051608081018252868152602080820187815282840187815260608401878152600c80546000908152600b909552959093209351845590516001840155516002830155516003909101555461242e908790612a87565b50600c5495945050505050565b600061244682610d24565b90506124536000836113c3565b6001600160a01b038116600090815260086020526040812080546001929061247c90849061342c565b909155505060008281526007602052604080822080546001600160a01b0319169055518391906001600160a01b038416907fddf252ad1be2c89b69c2b068fc378daa952ba7f163c4a11628f55a4df523b3ef908390a45050565b60006001600160a01b0384163b156125cc57604051630a85bd0160e11b81526001600160a01b0385169063150b7a029061251a90339089908890889060040161361f565b6020604051808303816000875af1925050508015612555575060408051601f3d908101601f191682019092526125529181019061365c565b60015b6125b2573d808015612583576040519150601f19603f3d011682016040523d82523d6000602084013e612588565b606091505b5080516000036125aa5760405162461bcd60e51b815260040161070b90613515565b805181602001fd5b6001600160e01b031916630a85bd0160e11b1490506114a8565b506001949350505050565b600061262c826040518060400160405280602081526020017f5361666545524332303a206c6f772d6c6576656c2063616c6c206661696c6564815250856001600160a01b0316612bc99092919063ffffffff16565b805190915015610922578080602001905181019061264a9190613679565b6109225760405162461bcd60e51b815260206004820152602a60248201527f5361666545524332303a204552433230206f7065726174696f6e20646964206e6044820152691bdd081cdd58d8d9595960b21b606482015260840161070b565b606060006126b883600261346b565b6126c390600261343f565b67ffffffffffffffff8111156126db576126db613226565b6040519080825280601f01601f191660200182016040528015612705576020820181803683370190505b509050600360fc1b8160008151811061272057612720613594565b60200101906001600160f81b031916908160001a905350600f60fb1b8160018151811061274f5761274f613594565b60200101906001600160f81b031916908160001a905350600061277384600261346b565b61277e90600161343f565b90505b60018111156127f6576f181899199a1a9b1b9c1cb0b131b232b360811b85600f16601081106127b2576127b2613594565b1a60f81b8282815181106127c8576127c8613594565b60200101906001600160f81b031916908160001a90535060049490941c936127ef81613696565b9050612781565b508315610d1d5760405162461bcd60e51b815260206004820181905260248201527f537472696e67733a20686578206c656e67746820696e73756666696369656e74604482015260640161070b565b600080825160410361287b5760208301516040840151606085015160001a61286f87828585612bd8565b94509450505050612883565b506000905060025b9250929050565b600081600481111561289e5761289e6134b4565b036128a65750565b60018160048111156128ba576128ba6134b4565b036129075760405162461bcd60e51b815260206004820152601860248201527f45434453413a20696e76616c6964207369676e61747572650000000000000000604482015260640161070b565b600281600481111561291b5761291b6134b4565b036129685760405162461bcd60e51b815260206004820152601f60248201527f45434453413a20696e76616c6964207369676e6174757265206c656e67746800604482015260640161070b565b600381600481111561297c5761297c6134b4565b036129d45760405162461bcd60e51b815260206004820152602260248201527f45434453413a20696e76616c6964207369676e6174757265202773272076616c604482015261756560f01b606482015260840161070b565b60048160048111156129e8576129e86134b4565b036113c05760405162461bcd60e51b815260206004820152602260248201527f45434453413a20696e76616c6964207369676e6174757265202776272076616c604482015261756560f01b606482015260840161070b565b600080612a4c84612cc5565b90506001836002811115612a6257612a626134b4565b148015612a77575083612a75828061346b565b105b15610d1d576114a860018261343f565b6001600160a01b038216612add5760405162461bcd60e51b815260206004820181905260248201527f4552433732313a206d696e7420746f20746865207a65726f2061646472657373604482015260640161070b565b6000818152600760205260409020546001600160a01b031615612b425760405162461bcd60e51b815260206004820152601c60248201527f4552433732313a20746f6b656e20616c7265616479206d696e74656400000000604482015260640161070b565b6001600160a01b0382166000908152600860205260408120805460019290612b6b90849061343f565b909155505060008181526007602052604080822080546001600160a01b0319166001600160a01b03861690811790915590518392907fddf252ad1be2c89b69c2b068fc378daa952ba7f163c4a11628f55a4df523b3ef908290a45050565b60606114a88484600085612e2b565b6000807f7fffffffffffffffffffffffffffffff5d576e7357a4501ddfe92f46681b20a0831115612c0f5750600090506003612cbc565b8460ff16601b14158015612c2757508460ff16601c14155b15612c385750600090506004612cbc565b6040805160008082526020820180845289905260ff881692820192909252606081018690526080810185905260019060a0016020604051602081039080840390855afa158015612c8c573d6000803e3d6000fd5b5050604051601f1901519150506001600160a01b038116612cb557600060019250925050612cbc565b9150600090505b94509492505050565b600081600003612cd757506000919050565b600182608081901c15612cef5760409190911b9060801c5b604081901c15612d045760209190911b9060401c5b602081901c15612d195760109190911b9060201c5b601081901c15612d2e5760089190911b9060101c5b600881901c15612d435760049190911b9060081c5b600481901c15612d585760029190911b9060041c5b600281901c15612d6a57600182901b91505b6001828581612d7b57612d7b61348a565b048301901c91506001828581612d9357612d9361348a565b048301901c91506001828581612dab57612dab61348a565b048301901c91506001828581612dc357612dc361348a565b048301901c91506001828581612ddb57612ddb61348a565b048301901c91506001828581612df357612df361348a565b048301901c91506001828581612e0b57612e0b61348a565b048301901c91506114a882838681612e2557612e2561348a565b04612f5c565b606082471015612e8c5760405162461bcd60e51b815260206004820152602660248201527f416464726573733a20696e73756666696369656e742062616c616e636520666f6044820152651c8818d85b1b60d21b606482015260840161070b565b6001600160a01b0385163b612ee35760405162461bcd60e51b815260206004820152601d60248201527f416464726573733a2063616c6c20746f206e6f6e2d636f6e7472616374000000604482015260640161070b565b600080866001600160a01b03168587604051612eff91906136ad565b60006040518083038185875af1925050503d8060008114612f3c576040519150601f19603f3d011682016040523d82523d6000602084013e612f41565b606091505b5091509150612f51828286612f6b565b979650505050505050565b60008183106123725781610d1d565b60608315612f7a575081610d1d565b825115612f8a5782518084602001fd5b8160405162461bcd60e51b815260040161070b9190613040565b6001600160e01b0319811681146113c057600080fd5b600060208284031215612fcc57600080fd5b8135610d1d81612fa4565b600060208284031215612fe957600080fd5b5035919050565b60005b8381101561300b578181015183820152602001612ff3565b50506000910152565b6000815180845261302c816020860160208601612ff0565b601f01601f19169290920160200192915050565b602081526000610d1d6020830184613014565b80356001600160a01b038116811461306a57600080fd5b919050565b6000806040838503121561308257600080fd5b61308b83613053565b946020939093013593505050565b6000806000606084860312156130ae57600080fd5b6130b784613053565b92506130c560208501613053565b9150604084013590509250925092565b600080604083850312156130e857600080fd5b823591506130f860208401613053565b90509250929050565b6000806040838503121561311457600080fd5b50508035926020909101359150565b600080600080600080600060c0888a03121561313e57600080fd5b873596506020880135955060408801359450606088013593506080880135925060a088013567ffffffffffffffff8082111561317957600080fd5b818a0191508a601f83011261318d57600080fd5b81358181111561319c57600080fd5b8b60208285010111156131ae57600080fd5b60208301945080935050505092959891949750929550565b6000602082840312156131d857600080fd5b610d1d82613053565b80151581146113c057600080fd5b6000806040838503121561320257600080fd5b61320b83613053565b9150602083013561321b816131e1565b809150509250929050565b634e487b7160e01b600052604160045260246000fd5b6000806000806080858703121561325257600080fd5b61325b85613053565b935061326960208601613053565b925060408501359150606085013567ffffffffffffffff8082111561328d57600080fd5b818701915087601f8301126132a157600080fd5b8135818111156132b3576132b3613226565b604051601f8201601f19908116603f011681019083821181831017156132db576132db613226565b816040528281528a60208487010111156132f457600080fd5b82602086016020830137600060208483010152809550505050505092959194509250565b60006020828403121561332a57600080fd5b8135610d1d816131e1565b6000806040838503121561334857600080fd5b61335183613053565b91506130f860208401613053565b600181811c9082168061337357607f821691505b60208210810361339357634e487b7160e01b600052602260045260246000fd5b50919050565b6020808252602e908201527f4552433732313a2063616c6c6572206973206e6f7420746f6b656e206f776e6560408201526d1c881b9bdc88185c1c1c9bdd995960921b606082015260800190565b600083516133f9818460208801612ff0565b83519083019061340d818360208801612ff0565b01949350505050565b634e487b7160e01b600052601160045260246000fd5b8181038181111561068c5761068c613416565b8082018082111561068c5761068c613416565b60006020828403121561346457600080fd5b5051919050565b600081600019048311821515161561348557613485613416565b500290565b634e487b7160e01b600052601260045260246000fd5b6000826134af576134af61348a565b500490565b634e487b7160e01b600052602160045260246000fd5b600080600080608085870312156134e057600080fd5b845193506020850151925060408501516134f9816131e1565b606086015190925061350a816131e1565b939692955090935050565b60208082526032908201527f4552433732313a207472616e7366657220746f206e6f6e20455243373231526560408201527131b2b4bb32b91034b6b83632b6b2b73a32b960711b606082015260800190565b60006001820161357957613579613416565b5060010190565b60008261358f5761358f61348a565b500690565b634e487b7160e01b600052603260045260246000fd5b7f416363657373436f6e74726f6c3a206163636f756e74200000000000000000008152600083516135e2816017850160208801612ff0565b7001034b99036b4b9b9b4b733903937b6329607d1b6017918401918201528351613613816028840160208801612ff0565b01602801949350505050565b6001600160a01b038581168252841660208201526040810183905260806060820181905260009061365290830184613014565b9695505050505050565b60006020828403121561366e57600080fd5b8151610d1d81612fa4565b60006020828403121561368b57600080fd5b8151610d1d816131e1565b6000816136a5576136a5613416565b506000190190565b600082516136bf818460208701612ff0565b919091019291505056fea26469706673582212209dd6ab06ed459e9a89f03b318c0116350bced12c783d9bb2fe919988a556124f64736f6c6343000810003360a06040523480156200001157600080fd5b5060405162000f4438038062000f4483398101604081905262000034916200013c565b8282600362000044838262000250565b50600462000053828262000250565b505033608052506005805460ff191660ff92909216919091179055506200031c9050565b634e487b7160e01b600052604160045260246000fd5b600082601f8301126200009f57600080fd5b81516001600160401b0380821115620000bc57620000bc62000077565b604051601f8301601f19908116603f01168101908282118183101715620000e757620000e762000077565b816040528381526020925086838588010111156200010457600080fd5b600091505b8382101562000128578582018301518183018401529082019062000109565b600093810190920192909252949350505050565b6000806000606084860312156200015257600080fd5b83516001600160401b03808211156200016a57600080fd5b62000178878388016200008d565b945060208601519150808211156200018f57600080fd5b506200019e868287016200008d565b925050604084015160ff81168114620001b657600080fd5b809150509250925092565b600181811c90821680620001d657607f821691505b602082108103620001f757634e487b7160e01b600052602260045260246000fd5b50919050565b601f8211156200024b57600081815260208120601f850160051c81016020861015620002265750805b601f850160051c820191505b81811015620002475782815560010162000232565b5050505b505050565b81516001600160401b038111156200026c576200026c62000077565b62000284816200027d8454620001c1565b84620001fd565b602080601f831160018114620002bc5760008415620002a35750858301515b600019600386901b1c1916600185901b17855562000247565b600085815260208120601f198616915b82811015620002ed57888601518255948401946001909101908401620002cc565b50858210156200030c5787850151600019600388901b60f8161c191681555b5050505050600190811b01905550565b608051610c056200033f600039600081816102f101526103810152610c056000f3fe608060405234801561001057600080fd5b50600436106100cf5760003560e01c806340c10f191161008c5780639dc29fac116100665780639dc29fac146101a8578063a457c2d7146101bb578063a9059cbb146101ce578063dd62ed3e146101e157600080fd5b806340c10f191461016257806370a082311461017757806395d89b41146101a057600080fd5b806306fdde03146100d4578063095ea7b3146100f257806318160ddd1461011557806323b872dd14610127578063313ce5671461013a578063395093511461014f575b600080fd5b6100dc6101f4565b6040516100e99190610a34565b60405180910390f35b610105610100366004610a9e565b610286565b60405190151581526020016100e9565b6002545b6040519081526020016100e9565b610105610135366004610ac8565b6102a0565b60055460405160ff90911681526020016100e9565b61010561015d366004610a9e565b6102c4565b610175610170366004610a9e565b6102e6565b005b610119610185366004610b04565b6001600160a01b031660009081526020819052604090205490565b6100dc610367565b6101756101b6366004610a9e565b610376565b6101056101c9366004610a9e565b6103ee565b6101056101dc366004610a9e565b610469565b6101196101ef366004610b26565b610477565b60606003805461020390610b59565b80601f016020809104026020016040519081016040528092919081815260200182805461022f90610b59565b801561027c5780601f106102515761010080835404028352916020019161027c565b820191906000526020600020905b81548152906001019060200180831161025f57829003601f168201915b5050505050905090565b6000336102948185856104a2565b60019150505b92915050565b6000336102ae8582856105c7565b6102b9858585610641565b506001949350505050565b6000336102948185856102d78383610477565b6102e19190610ba9565b6104a2565b336001600160a01b037f000000000000000000000000000000000000000000000000000000000000000016146103595760405162461bcd60e51b81526020600482015260136024820152722ab730baba3437b934bd32b21031b0b63632b960691b60448201526064015b60405180910390fd5b610363828261080f565b5050565b60606004805461020390610b59565b336001600160a01b037f000000000000000000000000000000000000000000000000000000000000000016146103e45760405162461bcd60e51b81526020600482015260136024820152722ab730baba3437b934bd32b21031b0b63632b960691b6044820152606401610350565b61036382826108ee565b600033816103fc8286610477565b90508381101561045c5760405162461bcd60e51b815260206004820152602560248201527f45524332303a2064656372656173656420616c6c6f77616e63652062656c6f77604482015264207a65726f60d81b6064820152608401610350565b6102b982868684036104a2565b600033610294818585610641565b6001600160a01b03918216600090815260016020908152604080832093909416825291909152205490565b6001600160a01b0383166105045760405162461bcd60e51b8152602060048201526024808201527f45524332303a20617070726f76652066726f6d20746865207a65726f206164646044820152637265737360e01b6064820152608401610350565b6001600160a01b0382166105655760405162461bcd60e51b815260206004820152602260248201527f45524332303a20617070726f766520746f20746865207a65726f206164647265604482015261737360f01b6064820152608401610350565b6001600160a01b0383811660008181526001602090815260408083209487168084529482529182902085905590518481527f8c5be1e5ebec7d5bd14f71427d1e84f3dd0314c0f7b2291e5b200ac8c7c3b92591015b60405180910390a3505050565b60006105d38484610477565b9050600019811461063b578181101561062e5760405162461bcd60e51b815260206004820152601d60248201527f45524332303a20696e73756666696369656e7420616c6c6f77616e63650000006044820152606401610350565b61063b84848484036104a2565b50505050565b6001600160a01b0383166106a55760405162461bcd60e51b815260206004820152602560248201527f45524332303a207472616e736665722066726f6d20746865207a65726f206164604482015264647265737360d81b6064820152608401610350565b6001600160a01b0382166107075760405162461bcd60e51b815260206004820152602360248201527f45524332303a207472616e7366657220746f20746865207a65726f206164647260448201526265737360e81b6064820152608401610350565b6001600160a01b0383166000908152602081905260409020548181101561077f5760405162461bcd60e51b815260206004820152602660248201527f45524332303a207472616e7366657220616d6f756e7420657863656564732062604482015265616c616e636560d01b6064820152608401610350565b6001600160a01b038085166000908152602081905260408082208585039055918516815290812080548492906107b6908490610ba9565b92505081905550826001600160a01b0316846001600160a01b03167fddf252ad1be2c89b69c2b068fc378daa952ba7f163c4a11628f55a4df523b3ef8460405161080291815260200190565b60405180910390a361063b565b6001600160a01b0382166108655760405162461bcd60e51b815260206004820152601f60248201527f45524332303a206d696e7420746f20746865207a65726f2061646472657373006044820152606401610350565b80600260008282546108779190610ba9565b90915550506001600160a01b038216600090815260208190526040812080548392906108a4908490610ba9565b90915550506040518181526001600160a01b038316906000907fddf252ad1be2c89b69c2b068fc378daa952ba7f163c4a11628f55a4df523b3ef9060200160405180910390a35050565b6001600160a01b03821661094e5760405162461bcd60e51b815260206004820152602160248201527f45524332303a206275726e2066726f6d20746865207a65726f206164647265736044820152607360f81b6064820152608401610350565b6001600160a01b038216600090815260208190526040902054818110156109c25760405162461bcd60e51b815260206004820152602260248201527f45524332303a206275726e20616d6f756e7420657863656564732062616c616e604482015261636560f01b6064820152608401610350565b6001600160a01b03831660009081526020819052604081208383039055600280548492906109f1908490610bbc565b90915550506040518281526000906001600160a01b038516907fddf252ad1be2c89b69c2b068fc378daa952ba7f163c4a11628f55a4df523b3ef906020016105ba565b600060208083528351808285015260005b81811015610a6157858101830151858201604001528201610a45565b506000604082860101526040601f19601f8301168501019250505092915050565b80356001600160a01b0381168114610a9957600080fd5b919050565b60008060408385031215610ab157600080fd5b610aba83610a82565b946020939093013593505050565b600080600060608486031215610add57600080fd5b610ae684610a82565b9250610af460208501610a82565b9150604084013590509250925092565b600060208284031215610b1657600080fd5b610b1f82610a82565b9392505050565b60008060408385031215610b3957600080fd5b610b4283610a82565b9150610b5060208401610a82565b90509250929050565b600181811c90821680610b6d57607f821691505b602082108103610b8d57634e487b7160e01b600052602260045260246000fd5b50919050565b634e487b7160e01b600052601160045260246000fd5b8082018082111561029a5761029a610b93565b8181038181111561029a5761029a610b9356fea264697066735822122053403b0277dc3076fabb3348fa64005f4d46c0a6ea26db3a25c03a1495a4e32e64736f6c63430008100033a49807205ce4d355092ef5a8a18f56e8913cf4a201fbe287825b095693c21775a26469706673582212203a04ede7cb0735bb49704f2c20420de357b0eb6f30a1ba446fb4ebc6cd2b2e5164736f6c63430008100033",
  "linkReferences": {},
  "deployedLinkReferences": {}
}