{
  "_format": "hh-sol-artifact-1",
  "contractName": "BettingOracle",
  "sourceName": "contracts/BettingOracle.sol",
  "abi": [
    {
      "inputs": [
        {
          "internalType": "address",
          "name": "bettingFactory",
          "type": "address"
        }
      ],
      "stateMutability": "nonpayable",
      "type": "constructor"
    },
    {
      "anonymous": false,
      "inputs": [
        {
          "indexed": true,
          "internalType": "bytes32",
          "name": "marketId",
          "type": "bytes32"
        }
      ],
      "name": "CancelMarket",
      "type": "event"
    },
    {
      "anonymous": false,
      "inputs": [
        {
          "indexed": true,
          "internalType": "bytes32",
          "name": "marketId",
          "type": "bytes32"
        },
        {
          "indexed": false,
          "internalType": "bytes32[]",
          "name": "sides",
          "type": "bytes32[]"
        },
        {
          "indexed": false,
          "internalType": "uint256",
          "name": "bettingPeriodEnd",
          "type": "uint256"
        }
      ],
      "name": "OpenMarket",
      "type": "event"
    },
    {
      "anonymous": false,
      "inputs": [
        {
          "indexed": true,
          "internalType": "address",
          "name": "previousOwner",
          "type": "address"
        },
        {
          "indexed": true,
          "internalType": "address",
          "name": "newOwner",
          "type": "address"
        }
      ],
      "name": "OwnershipTransferred",
      "type": "event"
    },
    {
      "anonymous": false,
      "inputs": [
        {
          "indexed": true,
          "internalType": "bytes32",
          "name": "marketId",
          "type": "bytes32"
        },
        {
          "indexed": false,
          "internalType": "bytes32",
          "name": "winner",
          "type": "bytes32"
        }
      ],
      "name": "WinnerSet",
      "type": "event"
    },
    {
      "inputs": [],
      "name": "NO_WINNER",
      "outputs": [
        {
          "internalType": "bytes32",
          "name": "",
          "type": "bytes32"
        }
      ],
      "stateMutability": "view",
      "type": "function"
    },
    {
      "inputs": [
        {
          "internalType": "bytes32",
          "name": "marketId",
          "type": "bytes32"
        }
      ],
      "name": "cancelMarket",
      "outputs": [],
      "stateMutability": "nonpayable",
      "type": "function"
    },
    {
      "inputs": [
        {
          "internalType": "bytes32",
          "name": "marketId",
          "type": "bytes32"
        }
      ],
      "name": "getMarket",
      "outputs": [
        {
          "internalType": "bytes32",
          "name": "",
          "type": "bytes32"
        },
        {
          "internalType": "uint256",
          "name": "",
          "type": "uint256"
        },
        {
          "internalType": "bool",
          "name": "",
          "type": "bool"
        },
        {
          "internalType": "bool",
          "name": "",
          "type": "bool"
        }
      ],
      "stateMutability": "view",
      "type": "function"
    },
    {
      "inputs": [
        {
          "internalType": "bytes32",
          "name": "marketId",
          "type": "bytes32"
        },
        {
          "internalType": "bytes32[]",
          "name": "sides",
          "type": "bytes32[]"
        },
        {
          "internalType": "uint256",
          "name": "bettingPeriodEnd",
          "type": "uint256"
        }
      ],
      "name": "openMarket",
      "outputs": [],
      "stateMutability": "nonpayable",
      "type": "function"
    },
    {
      "inputs": [],
      "name": "owner",
      "outputs": [
        {
          "internalType": "address",
          "name": "",
          "type": "address"
        }
      ],
      "stateMutability": "view",
      "type": "function"
    },
    {
      "inputs": [],
      "name": "renounceOwnership",
      "outputs": [],
      "stateMutability": "nonpayable",
      "type": "function"
    },
    {
      "inputs": [
        {
          "internalType": "bytes32",
          "name": "marketId",
          "type": "bytes32"
        },
        {
          "internalType": "bytes32",
          "name": "winner",
          "type": "bytes32"
        }
      ],
      "name": "setMarketWinner",
      "outputs": [],
      "stateMutability": "nonpayable",
      "type": "function"
    },
    {
      "inputs": [
        {
          "internalType": "address",
          "name": "newOwner",
          "type": "address"
        }
      ],
      "name": "transferOwnership",
      "outputs": [],
      "stateMutability": "nonpayable",
      "type": "function"
    },
    {
      "inputs": [
        {
          "internalType": "bytes32",
          "name": "marketId",
          "type": "bytes32"
        },
        {
          "internalType": "bytes32",
          "name": "sideId",
          "type": "bytes32"
        }
      ],
      "name": "validateBet",
      "outputs": [],
      "stateMutability": "view",
      "type": "function"
    },
    {
      "inputs": [
        {
          "internalType": "bytes32",
          "name": "marketId",
          "type": "bytes32"
        },
        {
          "internalType": "bytes32",
          "name": "sideId",
          "type": "bytes32"
        }
      ],
      "name": "validateClaim",
      "outputs": [],
      "stateMutability": "view",
      "type": "function"
    },
    {
      "inputs": [
        {
          "internalType": "bytes32",
          "name": "marketId",
          "type": "bytes32"
        }
      ],
      "name": "validateWithdraw",
      "outputs": [],
      "stateMutability": "view",
      "type": "function"
    }
  ],
  "bytecode": "0x60a060405234801561001057600080fd5b5060405161113b38038061113b83398101604081905261002f91610114565b610038336100b5565b610054816001600160a01b031661010560201b610bff1760201c565b6100a45760405162461bcd60e51b815260206004820152601c60248201527f42657474696e6720666163746f7279206e6f7420636f6e747261637400000000604482015260640160405180910390fd5b6001600160a01b0316608052610144565b600080546001600160a01b038381166001600160a01b0319831681178455604051919092169283917f8be0079c531659141344cd1fd0a4f28419497f9722a3daafe3b4186f6b6457e09190a35050565b6001600160a01b03163b151590565b60006020828403121561012657600080fd5b81516001600160a01b038116811461013d57600080fd5b9392505050565b608051610fc7610174600039600081816102e4015281816103e80152818161071e0152610a9f0152610fc76000f3fe608060405234801561001057600080fd5b50600436106100a95760003560e01c80638da5cb5b116100715780638da5cb5b1461010c578063bdb8328914610127578063c3c95c7b1461013a578063cd8101ad14610175578063df6dc7da14610188578063f2fde38b1461019b57600080fd5b80630606d17a146100ae5780630732f376146100c95780631d391a83146100de578063530a325e146100f1578063715018a614610104575b600080fd5b6100b6600081565b6040519081526020015b60405180910390f35b6100dc6100d7366004610dcd565b6101ae565b005b6100dc6100ec366004610dcd565b6102cf565b6100dc6100ff366004610dcd565b6103d3565b6100dc61057e565b6000546040516001600160a01b0390911681526020016100c0565b6100dc610135366004610def565b610592565b61014d610148366004610def565b6106f8565b60408051948552602085019390935290151591830191909152151560608201526080016100c0565b6100dc610183366004610e08565b6107da565b6100dc610196366004610def565b610a8a565b6100dc6101a9366004610e8d565b610b89565b6101b6610c0e565b6101c08282610c68565b600082815260016020819052604090912001541561021a5760405162461bcd60e51b815260206004820152601260248201527115da5b9b995c88185b1c9958591e481cd95d60721b60448201526064015b60405180910390fd5b60008281526001602052604090206002015442101561027b5760405162461bcd60e51b815260206004820152601760248201527f42657474696e6720706572696f64206e6f74206f7665720000000000000000006044820152606401610211565b600082815260016020819052604091829020018290555182907fec5db3a3b3db01beba275fe9996361e413742573ad2f26e185e0d4d0691205be906102c39084815260200190565b60405180910390a25050565b60405163a5e8860760e01b81523360048201527f00000000000000000000000000000000000000000000000000000000000000006001600160a01b03169063a5e8860790602401602060405180830381865afa158015610333573d6000803e3d6000fd5b505050506040513d601f19601f820116820180604052508101906103579190610ebd565b6103735760405162461bcd60e51b815260040161021190610edf565b61037d8282610c68565b60008281526001602052604090206002015442106103cf5760405162461bcd60e51b815260206004820152600f60248201526e2132ba3a34b7339034b99037bb32b960891b6044820152606401610211565b5050565b60405163a5e8860760e01b81523360048201527f00000000000000000000000000000000000000000000000000000000000000006001600160a01b03169063a5e8860790602401602060405180830381865afa158015610437573d6000803e3d6000fd5b505050506040513d601f19601f8201168201806040525081019061045b9190610ebd565b6104775760405162461bcd60e51b815260040161021190610edf565b6104818282610c68565b6000828152600160205260409020600201544210156104d85760405162461bcd60e51b81526020600482015260136024820152722132ba3a34b7339034b9903737ba1037bb32b960691b6044820152606401610211565b6000828152600160208190526040909120908101546105315760405162461bcd60e51b815260206004820152601560248201527413585c9ad95d081dda5b9b995c881b9bdd081cd95d605a1b6044820152606401610211565b818160010154146105795760405162461bcd60e51b815260206004820152601260248201527129b4b2329034b9903737ba103bb4b73732b960711b6044820152606401610211565b505050565b610586610c0e565b6105906000610d7d565b565b61059a610c0e565b600081815260016020526040902060030154610100900460ff166105f85760405162461bcd60e51b815260206004820152601560248201527413585c9ad95d08191bd95cc81b9bdd08195e1a5cdd605a1b6044820152606401610211565b600081815260016020819052604090912001541561064d5760405162461bcd60e51b815260206004820152601260248201527115da5b9b995c88185b1c9958591e481cd95d60721b6044820152606401610211565b60008181526001602052604090206003015460ff16156106af5760405162461bcd60e51b815260206004820152601860248201527f4d61726b657420616c72656164792063616e63656c6c656400000000000000006044820152606401610211565b6000818152600160208190526040808320600301805460ff19169092179091555182917f4fb07ab1f5833f5cde22fc2cc4bff91b4675d2fab6452308aeaae0d0bece1e1691a250565b60405163a5e8860760e01b81523360048201526000908190819081906001600160a01b037f0000000000000000000000000000000000000000000000000000000000000000169063a5e8860790602401602060405180830381865afa158015610765573d6000803e3d6000fd5b505050506040513d601f19601f820116820180604052508101906107899190610ebd565b6107a55760405162461bcd60e51b815260040161021190610edf565b505050600091825250600160208190526040909120908101546002820154600390920154909260ff8083169261010090041690565b6107e2610c0e565b600084815260016020526040902060030154610100900460ff16156108415760405162461bcd60e51b81526020600482015260156024820152744d61726b657420616c72656164792065786973747360581b6044820152606401610211565b60028210156108925760405162461bcd60e51b815260206004820152601a60248201527f4d7573742068617665206174206c6561737420322073696465730000000000006044820152606401610211565b61010082106108e35760405162461bcd60e51b815260206004820152601d60248201527f4d7573742068617665206c657373207468616e203235362073696465730000006044820152606401610211565b600084815260016020526040812060028101839055600301805461ff0019166101001790555b82811015610a4757600084848381811061092557610925610f16565b90506020020135036109685760405162461bcd60e51b815260206004820152600c60248201526b496e76616c6964207369646560a01b6044820152606401610211565b60008581526001602052604081209085858481811061098957610989610f16565b602090810292909201358352508101919091526040016000205460ff16156109e45760405162461bcd60e51b815260206004820152600e60248201526d4475706c6963617465207369646560901b6044820152606401610211565b600085815260016020819052604082209091868685818110610a0857610a08610f16565b90506020020135815260200190815260200160002060006101000a81548160ff0219169083151502179055508080610a3f90610f2c565b915050610909565b50837f5128deef02651d698435bf1e02c5d1abbb5a6d9fa305c6a38130999cf2dfb82c848484604051610a7c93929190610f53565b60405180910390a250505050565b60405163a5e8860760e01b81523360048201527f00000000000000000000000000000000000000000000000000000000000000006001600160a01b03169063a5e8860790602401602060405180830381865afa158015610aee573d6000803e3d6000fd5b505050506040513d601f19601f82011682018060405250810190610b129190610ebd565b610b2e5760405162461bcd60e51b815260040161021190610edf565b60008181526001602052604090206003015460ff16610b865760405162461bcd60e51b815260206004820152601460248201527313585c9ad95d081b9bdd0818d85b98d95b1b195960621b6044820152606401610211565b50565b610b91610c0e565b6001600160a01b038116610bf65760405162461bcd60e51b815260206004820152602660248201527f4f776e61626c653a206e6577206f776e657220697320746865207a65726f206160448201526564647265737360d01b6064820152608401610211565b610b8681610d7d565b6001600160a01b03163b151590565b6000546001600160a01b031633146105905760405162461bcd60e51b815260206004820181905260248201527f4f776e61626c653a2063616c6c6572206973206e6f7420746865206f776e65726044820152606401610211565b600082815260016020526040902060030154610100900460ff16610cc65760405162461bcd60e51b815260206004820152601560248201527413585c9ad95d08191bd95cc81b9bdd08195e1a5cdd605a1b6044820152606401610211565b600082815260016020908152604080832084845290915290205460ff16610d255760405162461bcd60e51b815260206004820152601360248201527214da591948191bd95cc81b9bdd08195e1a5cdd606a1b6044820152606401610211565b60008281526001602052604090206003015460ff16156103cf5760405162461bcd60e51b815260206004820152601360248201527213585c9ad95d081a5cc818d85b98d95b1b1959606a1b6044820152606401610211565b600080546001600160a01b038381166001600160a01b0319831681178455604051919092169283917f8be0079c531659141344cd1fd0a4f28419497f9722a3daafe3b4186f6b6457e09190a35050565b60008060408385031215610de057600080fd5b50508035926020909101359150565b600060208284031215610e0157600080fd5b5035919050565b60008060008060608587031215610e1e57600080fd5b84359350602085013567ffffffffffffffff80821115610e3d57600080fd5b818701915087601f830112610e5157600080fd5b813581811115610e6057600080fd5b8860208260051b8501011115610e7557600080fd5b95986020929092019750949560400135945092505050565b600060208284031215610e9f57600080fd5b81356001600160a01b0381168114610eb657600080fd5b9392505050565b600060208284031215610ecf57600080fd5b81518015158114610eb657600080fd5b60208082526017908201527f43616c6c6572206e6f742062657474696e6720706f6f6c000000000000000000604082015260600190565b634e487b7160e01b600052603260045260246000fd5b600060018201610f4c57634e487b7160e01b600052601160045260246000fd5b5060010190565b6040808252810183905260006001600160fb1b03841115610f7357600080fd5b8360051b80866060850137602083019390935250016060019291505056fea2646970667358221220d5f50518944c9d4aa53d3bd4c635884a7a7cc0ada46803c2871de03614fb2a7c64736f6c63430008100033",
  "linkReferences": {},
  "deployedLinkReferences": {}
}